{
  "_format": "hh-sol-artifact-1",
  "contractName": "ZkSync",
  "sourceName": "cache/solpp-generated-contracts/ZkSync.sol",
  "abi": [
    {
      "inputs": [],
      "stateMutability": "nonpayable",
      "type": "constructor"
    },
    {
      "anonymous": false,
      "inputs": [
        {
          "indexed": true,
          "internalType": "address",
          "name": "addr",
          "type": "address"
        }
      ],
      "name": "ApproveCutUpgradeNoticePeriod",
      "type": "event"
    },
    {
      "anonymous": false,
      "inputs": [
        {
          "indexed": true,
          "internalType": "uint32",
          "name": "blockNumber",
          "type": "uint32"
        },
        {
          "indexed": false,
          "internalType": "uint16",
          "name": "group_id",
          "type": "uint16"
        }
      ],
      "name": "BlockCommit",
      "type": "event"
    },
    {
      "anonymous": false,
      "inputs": [
        {
          "indexed": true,
          "internalType": "uint32",
          "name": "blockNumber",
          "type": "uint32"
        },
        {
          "indexed": false,
          "internalType": "uint16",
          "name": "group_id",
          "type": "uint16"
        }
      ],
      "name": "BlockVerification",
      "type": "event"
    },
    {
      "anonymous": false,
      "inputs": [
        {
          "indexed": false,
          "internalType": "uint32",
          "name": "totalBlocksVerified",
          "type": "uint32"
        },
        {
          "indexed": false,
          "internalType": "uint32",
          "name": "totalBlocksCommitted",
          "type": "uint32"
        },
        {
          "indexed": false,
          "internalType": "uint16",
          "name": "group_id",
          "type": "uint16"
        }
      ],
      "name": "BlocksRevert",
      "type": "event"
    },
    {
      "anonymous": false,
      "inputs": [
        {
          "indexed": true,
          "internalType": "uint16",
          "name": "tokenId",
          "type": "uint16"
        },
        {
          "indexed": false,
          "internalType": "uint128",
          "name": "amount",
          "type": "uint128"
        },
        {
          "indexed": false,
          "internalType": "uint16",
          "name": "group_id",
          "type": "uint16"
        }
      ],
      "name": "Deposit",
      "type": "event"
    },
    {
      "anonymous": false,
      "inputs": [
        {
          "indexed": true,
          "internalType": "uint32",
          "name": "zkSyncBlockId",
          "type": "uint32"
        },
        {
          "indexed": true,
          "internalType": "uint32",
          "name": "accountId",
          "type": "uint32"
        },
        {
          "indexed": false,
          "internalType": "address",
          "name": "owner",
          "type": "address"
        },
        {
          "indexed": true,
          "internalType": "uint16",
          "name": "tokenId",
          "type": "uint16"
        },
        {
          "indexed": false,
          "internalType": "uint128",
          "name": "amount",
          "type": "uint128"
        }
      ],
      "name": "DepositCommit",
      "type": "event"
    },
    {
      "anonymous": false,
      "inputs": [
        {
          "indexed": false,
          "internalType": "uint16",
          "name": "_group_id",
          "type": "uint16"
        }
      ],
      "name": "ExodusMode",
      "type": "event"
    },
    {
      "anonymous": false,
      "inputs": [
        {
          "indexed": true,
          "internalType": "address",
          "name": "sender",
          "type": "address"
        },
        {
          "indexed": false,
          "internalType": "uint32",
          "name": "nonce",
          "type": "uint32"
        },
        {
          "indexed": false,
          "internalType": "bytes",
          "name": "fact",
          "type": "bytes"
        }
      ],
      "name": "FactAuth",
      "type": "event"
    },
    {
      "anonymous": false,
      "inputs": [
        {
          "indexed": true,
          "internalType": "uint32",
          "name": "zkSyncBlockId",
          "type": "uint32"
        },
        {
          "indexed": true,
          "internalType": "uint32",
          "name": "accountId",
          "type": "uint32"
        },
        {
          "indexed": false,
          "internalType": "address",
          "name": "owner",
          "type": "address"
        },
        {
          "indexed": true,
          "internalType": "uint16",
          "name": "tokenId",
          "type": "uint16"
        },
        {
          "indexed": false,
          "internalType": "uint128",
          "name": "amount",
          "type": "uint128"
        }
      ],
      "name": "FullExitCommit",
      "type": "event"
    },
    {
      "anonymous": false,
      "inputs": [
        {
          "indexed": false,
          "internalType": "uint16",
          "name": "group_id",
          "type": "uint16"
        },
        {
          "indexed": false,
          "internalType": "bool",
          "name": "restricted",
          "type": "bool"
        }
      ],
      "name": "GroupCreated",
      "type": "event"
    },
    {
      "anonymous": false,
      "inputs": [
        {
          "indexed": false,
          "internalType": "address",
          "name": "sender",
          "type": "address"
        },
        {
          "indexed": false,
          "internalType": "uint64",
          "name": "serialId",
          "type": "uint64"
        },
        {
          "indexed": false,
          "internalType": "enum Operations.OpType",
          "name": "opType",
          "type": "uint8"
        },
        {
          "indexed": false,
          "internalType": "bytes",
          "name": "pubData",
          "type": "bytes"
        },
        {
          "indexed": false,
          "internalType": "uint256",
          "name": "expirationBlock",
          "type": "uint256"
        },
        {
          "indexed": false,
          "internalType": "uint16",
          "name": "group_id",
          "type": "uint16"
        }
      ],
      "name": "NewPriorityRequest",
      "type": "event"
    },
    {
      "anonymous": false,
      "inputs": [
        {
          "indexed": false,
          "internalType": "uint256",
          "name": "newNoticePeriod",
          "type": "uint256"
        }
      ],
      "name": "NoticePeriodChange",
      "type": "event"
    },
    {
      "anonymous": false,
      "inputs": [
        {
          "indexed": true,
          "internalType": "uint16",
          "name": "tokenId",
          "type": "uint16"
        },
        {
          "indexed": false,
          "internalType": "uint128",
          "name": "amount",
          "type": "uint128"
        }
      ],
      "name": "Withdrawal",
      "type": "event"
    },
    {
      "anonymous": false,
      "inputs": [
        {
          "indexed": true,
          "internalType": "uint32",
          "name": "tokenId",
          "type": "uint32"
        }
      ],
      "name": "WithdrawalNFT",
      "type": "event"
    },
    {
      "anonymous": false,
      "inputs": [
        {
          "indexed": true,
          "internalType": "uint32",
          "name": "tokenId",
          "type": "uint32"
        }
      ],
      "name": "WithdrawalNFTPending",
      "type": "event"
    },
    {
      "anonymous": false,
      "inputs": [
        {
          "indexed": true,
          "internalType": "uint16",
          "name": "tokenId",
          "type": "uint16"
        },
        {
          "indexed": true,
          "internalType": "address",
          "name": "recepient",
          "type": "address"
        },
        {
          "indexed": false,
          "internalType": "uint128",
          "name": "amount",
          "type": "uint128"
        }
      ],
      "name": "WithdrawalPending",
      "type": "event"
    },
    {
      "inputs": [
        {
          "internalType": "uint16",
          "name": "_group_id",
          "type": "uint16"
        }
      ],
      "name": "activateExodusMode",
      "outputs": [
        {
          "internalType": "bool",
          "name": "",
          "type": "bool"
        }
      ],
      "stateMutability": "nonpayable",
      "type": "function"
    },
    {
      "inputs": [
        {
          "internalType": "address",
          "name": "",
          "type": "address"
        },
        {
          "internalType": "uint32",
          "name": "",
          "type": "uint32"
        }
      ],
      "name": "authFacts",
      "outputs": [
        {
          "internalType": "bytes32",
          "name": "",
          "type": "bytes32"
        }
      ],
      "stateMutability": "view",
      "type": "function"
    },
    {
      "inputs": [
        {
          "internalType": "uint64",
          "name": "_n",
          "type": "uint64"
        },
        {
          "internalType": "uint16",
          "name": "_group_id",
          "type": "uint16"
        },
        {
          "internalType": "bytes[]",
          "name": "_depositsPubdata",
          "type": "bytes[]"
        }
      ],
      "name": "cancelOutstandingDepositsForExodusMode",
      "outputs": [],
      "stateMutability": "nonpayable",
      "type": "function"
    },
    {
      "inputs": [],
      "name": "closeGroup",
      "outputs": [],
      "stateMutability": "nonpayable",
      "type": "function"
    },
    {
      "inputs": [
        {
          "components": [
            {
              "internalType": "uint32",
              "name": "blockNumber",
              "type": "uint32"
            },
            {
              "internalType": "uint64",
              "name": "priorityOperations",
              "type": "uint64"
            },
            {
              "internalType": "bytes32",
              "name": "pendingOnchainOperationsHash",
              "type": "bytes32"
            },
            {
              "internalType": "uint256",
              "name": "timestamp",
              "type": "uint256"
            },
            {
              "internalType": "bytes32",
              "name": "stateHash",
              "type": "bytes32"
            },
            {
              "internalType": "bytes32",
              "name": "commitment",
              "type": "bytes32"
            }
          ],
          "internalType": "struct Storage.StoredBlockInfo",
          "name": "_lastCommittedBlockData",
          "type": "tuple"
        },
        {
          "components": [
            {
              "internalType": "bytes32",
              "name": "newStateHash",
              "type": "bytes32"
            },
            {
              "internalType": "bytes",
              "name": "publicData",
              "type": "bytes"
            },
            {
              "internalType": "uint256",
              "name": "timestamp",
              "type": "uint256"
            },
            {
              "components": [
                {
                  "internalType": "bytes",
                  "name": "ethWitness",
                  "type": "bytes"
                },
                {
                  "internalType": "uint32",
                  "name": "publicDataOffset",
                  "type": "uint32"
                }
              ],
              "internalType": "struct ZkSync.OnchainOperationData[]",
              "name": "onchainOperations",
              "type": "tuple[]"
            },
            {
              "internalType": "uint32",
              "name": "blockNumber",
              "type": "uint32"
            },
            {
              "internalType": "uint32",
              "name": "feeAccount",
              "type": "uint32"
            }
          ],
          "internalType": "struct ZkSync.CommitBlockInfo[]",
          "name": "_newBlocksData",
          "type": "tuple[]"
        }
      ],
      "name": "commitBlocks",
      "outputs": [],
      "stateMutability": "nonpayable",
      "type": "function"
    },
    {
      "inputs": [
        {
          "internalType": "bytes32",
          "name": "targetsHash",
          "type": "bytes32"
        }
      ],
      "name": "cutUpgradeNoticePeriod",
      "outputs": [],
      "stateMutability": "nonpayable",
      "type": "function"
    },
    {
      "inputs": [
        {
          "internalType": "bytes[]",
          "name": "signatures",
          "type": "bytes[]"
        }
      ],
      "name": "cutUpgradeNoticePeriodBySignature",
      "outputs": [],
      "stateMutability": "nonpayable",
      "type": "function"
    },
    {
      "inputs": [
        {
          "internalType": "contract IERC20",
          "name": "_token",
          "type": "address"
        },
        {
          "internalType": "uint104",
          "name": "_amount",
          "type": "uint104"
        },
        {
          "internalType": "address",
          "name": "_zkSyncAddress",
          "type": "address"
        },
        {
          "internalType": "uint16",
          "name": "_group_id",
          "type": "uint16"
        }
      ],
      "name": "depositERC20",
      "outputs": [],
      "stateMutability": "nonpayable",
      "type": "function"
    },
    {
      "inputs": [
        {
          "internalType": "address",
          "name": "_zkSyncAddress",
          "type": "address"
        },
        {
          "internalType": "uint16",
          "name": "_group_id",
          "type": "uint16"
        }
      ],
      "name": "depositETH",
      "outputs": [],
      "stateMutability": "payable",
      "type": "function"
    },
    {
      "inputs": [
        {
          "internalType": "uint16",
          "name": "_group_id",
          "type": "uint16"
        }
      ],
      "name": "doesGroupExist",
      "outputs": [
        {
          "internalType": "bool",
          "name": "",
          "type": "bool"
        }
      ],
      "stateMutability": "view",
      "type": "function"
    },
    {
      "inputs": [
        {
          "components": [
            {
              "components": [
                {
                  "internalType": "uint32",
                  "name": "blockNumber",
                  "type": "uint32"
                },
                {
                  "internalType": "uint64",
                  "name": "priorityOperations",
                  "type": "uint64"
                },
                {
                  "internalType": "bytes32",
                  "name": "pendingOnchainOperationsHash",
                  "type": "bytes32"
                },
                {
                  "internalType": "uint256",
                  "name": "timestamp",
                  "type": "uint256"
                },
                {
                  "internalType": "bytes32",
                  "name": "stateHash",
                  "type": "bytes32"
                },
                {
                  "internalType": "bytes32",
                  "name": "commitment",
                  "type": "bytes32"
                }
              ],
              "internalType": "struct Storage.StoredBlockInfo",
              "name": "storedBlock",
              "type": "tuple"
            },
            {
              "internalType": "bytes[]",
              "name": "pendingOnchainOpsPubdata",
              "type": "bytes[]"
            }
          ],
          "internalType": "struct ZkSync.ExecuteBlockInfo[]",
          "name": "_blocksData",
          "type": "tuple[]"
        },
        {
          "internalType": "bool",
          "name": "_completeWithdrawals",
          "type": "bool"
        }
      ],
      "name": "executeBlocks",
      "outputs": [],
      "stateMutability": "nonpayable",
      "type": "function"
    },
    {
      "inputs": [],
      "name": "getNoticePeriod",
      "outputs": [
        {
          "internalType": "uint256",
          "name": "",
          "type": "uint256"
        }
      ],
      "stateMutability": "pure",
      "type": "function"
    },
    {
      "inputs": [
        {
          "internalType": "address",
          "name": "_address",
          "type": "address"
        },
        {
          "internalType": "address",
          "name": "_token",
          "type": "address"
        }
      ],
      "name": "getPendingBalance",
      "outputs": [
        {
          "internalType": "uint128",
          "name": "",
          "type": "uint128"
        }
      ],
      "stateMutability": "view",
      "type": "function"
    },
    {
      "inputs": [
        {
          "internalType": "bytes",
          "name": "initializationParameters",
          "type": "bytes"
        }
      ],
      "name": "initialize",
      "outputs": [],
      "stateMutability": "nonpayable",
      "type": "function"
    },
    {
      "inputs": [
        {
          "internalType": "uint16",
          "name": "_group_id",
          "type": "uint16"
        }
      ],
      "name": "isGroupPermissioned",
      "outputs": [
        {
          "internalType": "bool",
          "name": "",
          "type": "bool"
        }
      ],
      "stateMutability": "view",
      "type": "function"
    },
    {
      "inputs": [],
      "name": "isReadyForUpgrade",
      "outputs": [
        {
          "internalType": "bool",
          "name": "",
          "type": "bool"
        }
      ],
      "stateMutability": "view",
      "type": "function"
    },
    {
      "inputs": [
        {
          "internalType": "uint16",
          "name": "_group_id",
          "type": "uint16"
        },
        {
          "internalType": "address",
          "name": "_user",
          "type": "address"
        }
      ],
      "name": "isUserAllowedInGroup",
      "outputs": [
        {
          "internalType": "bool",
          "name": "",
          "type": "bool"
        }
      ],
      "stateMutability": "view",
      "type": "function"
    },
    {
      "inputs": [
        {
          "internalType": "address",
          "name": "_user",
          "type": "address"
        },
        {
          "internalType": "bool",
          "name": "_add_or_remove",
          "type": "bool"
        }
      ],
      "name": "manageWhitelist",
      "outputs": [],
      "stateMutability": "nonpayable",
      "type": "function"
    },
    {
      "inputs": [
        {
          "components": [
            {
              "internalType": "uint32",
              "name": "blockNumber",
              "type": "uint32"
            },
            {
              "internalType": "uint64",
              "name": "priorityOperations",
              "type": "uint64"
            },
            {
              "internalType": "bytes32",
              "name": "pendingOnchainOperationsHash",
              "type": "bytes32"
            },
            {
              "internalType": "uint256",
              "name": "timestamp",
              "type": "uint256"
            },
            {
              "internalType": "bytes32",
              "name": "stateHash",
              "type": "bytes32"
            },
            {
              "internalType": "bytes32",
              "name": "commitment",
              "type": "bytes32"
            }
          ],
          "internalType": "struct Storage.StoredBlockInfo",
          "name": "_storedBlockInfo",
          "type": "tuple"
        },
        {
          "internalType": "address",
          "name": "_owner",
          "type": "address"
        },
        {
          "internalType": "uint32",
          "name": "_accountId",
          "type": "uint32"
        },
        {
          "internalType": "uint32",
          "name": "_tokenId",
          "type": "uint32"
        },
        {
          "internalType": "uint128",
          "name": "_amount",
          "type": "uint128"
        },
        {
          "internalType": "uint32",
          "name": "_nftCreatorAccountId",
          "type": "uint32"
        },
        {
          "internalType": "address",
          "name": "_nftCreatorAddress",
          "type": "address"
        },
        {
          "internalType": "uint32",
          "name": "_nftSerialId",
          "type": "uint32"
        },
        {
          "internalType": "bytes32",
          "name": "_nftContentHash",
          "type": "bytes32"
        },
        {
          "internalType": "uint256[]",
          "name": "_proof",
          "type": "uint256[]"
        }
      ],
      "name": "performExodus",
      "outputs": [],
      "stateMutability": "nonpayable",
      "type": "function"
    },
    {
      "inputs": [
        {
          "components": [
            {
              "internalType": "uint32",
              "name": "blockNumber",
              "type": "uint32"
            },
            {
              "internalType": "uint64",
              "name": "priorityOperations",
              "type": "uint64"
            },
            {
              "internalType": "bytes32",
              "name": "pendingOnchainOperationsHash",
              "type": "bytes32"
            },
            {
              "internalType": "uint256",
              "name": "timestamp",
              "type": "uint256"
            },
            {
              "internalType": "bytes32",
              "name": "stateHash",
              "type": "bytes32"
            },
            {
              "internalType": "bytes32",
              "name": "commitment",
              "type": "bytes32"
            }
          ],
          "internalType": "struct Storage.StoredBlockInfo[]",
          "name": "_committedBlocks",
          "type": "tuple[]"
        },
        {
          "components": [
            {
              "internalType": "uint256[]",
              "name": "recursiveInput",
              "type": "uint256[]"
            },
            {
              "internalType": "uint256[]",
              "name": "proof",
              "type": "uint256[]"
            },
            {
              "internalType": "uint256[]",
              "name": "commitments",
              "type": "uint256[]"
            },
            {
              "internalType": "uint8[]",
              "name": "vkIndexes",
              "type": "uint8[]"
            },
            {
              "internalType": "uint256[16]",
              "name": "subproofsLimbs",
              "type": "uint256[16]"
            }
          ],
          "internalType": "struct ZkSync.ProofInput",
          "name": "_proof",
          "type": "tuple"
        }
      ],
      "name": "proveBlocks",
      "outputs": [],
      "stateMutability": "nonpayable",
      "type": "function"
    },
    {
      "inputs": [
        {
          "internalType": "uint32",
          "name": "_accountId",
          "type": "uint32"
        },
        {
          "internalType": "address",
          "name": "_token",
          "type": "address"
        },
        {
          "internalType": "uint16",
          "name": "_group_id",
          "type": "uint16"
        },
        {
          "internalType": "uint16",
          "name": "_group_destination",
          "type": "uint16"
        }
      ],
      "name": "requestFullExit",
      "outputs": [],
      "stateMutability": "nonpayable",
      "type": "function"
    },
    {
      "inputs": [
        {
          "internalType": "uint32",
          "name": "_accountId",
          "type": "uint32"
        },
        {
          "internalType": "uint32",
          "name": "_tokenId",
          "type": "uint32"
        },
        {
          "internalType": "uint16",
          "name": "_group_id",
          "type": "uint16"
        }
      ],
      "name": "requestFullExitNFT",
      "outputs": [],
      "stateMutability": "nonpayable",
      "type": "function"
    },
    {
      "inputs": [
        {
          "components": [
            {
              "internalType": "uint32",
              "name": "blockNumber",
              "type": "uint32"
            },
            {
              "internalType": "uint64",
              "name": "priorityOperations",
              "type": "uint64"
            },
            {
              "internalType": "bytes32",
              "name": "pendingOnchainOperationsHash",
              "type": "bytes32"
            },
            {
              "internalType": "uint256",
              "name": "timestamp",
              "type": "uint256"
            },
            {
              "internalType": "bytes32",
              "name": "stateHash",
              "type": "bytes32"
            },
            {
              "internalType": "bytes32",
              "name": "commitment",
              "type": "bytes32"
            }
          ],
          "internalType": "struct Storage.StoredBlockInfo[]",
          "name": "_blocksToRevert",
          "type": "tuple[]"
        },
        {
          "internalType": "uint16",
          "name": "group_id",
          "type": "uint16"
        }
      ],
      "name": "revertBlocks",
      "outputs": [],
      "stateMutability": "nonpayable",
      "type": "function"
    },
    {
      "inputs": [
        {
          "internalType": "bytes",
          "name": "_pubkeyHash",
          "type": "bytes"
        },
        {
          "internalType": "uint16",
          "name": "_group_id",
          "type": "uint16"
        },
        {
          "internalType": "uint32",
          "name": "_nonce",
          "type": "uint32"
        }
      ],
      "name": "setAuthPubkeyHash",
      "outputs": [],
      "stateMutability": "nonpayable",
      "type": "function"
    },
    {
      "inputs": [
        {
          "internalType": "uint16",
          "name": "_group_id",
          "type": "uint16"
        },
        {
          "internalType": "address",
          "name": "_verifierAddress",
          "type": "address"
        },
        {
          "internalType": "bool",
          "name": "_restricted",
          "type": "bool"
        }
      ],
      "name": "startGroup",
      "outputs": [],
      "stateMutability": "nonpayable",
      "type": "function"
    },
    {
      "inputs": [
        {
          "internalType": "contract IERC20",
          "name": "_token",
          "type": "address"
        },
        {
          "internalType": "address",
          "name": "_to",
          "type": "address"
        },
        {
          "internalType": "uint128",
          "name": "_amount",
          "type": "uint128"
        },
        {
          "internalType": "uint128",
          "name": "_maxAmount",
          "type": "uint128"
        }
      ],
      "name": "transferERC20",
      "outputs": [
        {
          "internalType": "uint128",
          "name": "withdrawnAmount",
          "type": "uint128"
        }
      ],
      "stateMutability": "nonpayable",
      "type": "function"
    },
    {
      "inputs": [
        {
          "internalType": "bytes",
          "name": "upgradeParameters",
          "type": "bytes"
        }
      ],
      "name": "upgrade",
      "outputs": [],
      "stateMutability": "nonpayable",
      "type": "function"
    },
    {
      "inputs": [],
      "name": "upgradeCanceled",
      "outputs": [],
      "stateMutability": "nonpayable",
      "type": "function"
    },
    {
      "inputs": [],
      "name": "upgradeFinishes",
      "outputs": [],
      "stateMutability": "nonpayable",
      "type": "function"
    },
    {
      "inputs": [],
      "name": "upgradeNoticePeriodStarted",
      "outputs": [],
      "stateMutability": "nonpayable",
      "type": "function"
    },
    {
      "inputs": [],
      "name": "upgradePreparationStarted",
      "outputs": [],
      "stateMutability": "nonpayable",
      "type": "function"
    },
    {
      "inputs": [
        {
          "internalType": "address payable",
          "name": "_owner",
          "type": "address"
        },
        {
          "internalType": "address",
          "name": "_token",
          "type": "address"
        },
        {
          "internalType": "uint128",
          "name": "_amount",
          "type": "uint128"
        }
      ],
      "name": "withdrawPendingBalance",
      "outputs": [],
      "stateMutability": "nonpayable",
      "type": "function"
    },
    {
      "inputs": [
        {
          "internalType": "uint32",
          "name": "_tokenId",
          "type": "uint32"
        }
      ],
      "name": "withdrawPendingNFTBalance",
      "outputs": [],
      "stateMutability": "nonpayable",
      "type": "function"
    }
  ],
  "bytecode": "0x60806040523480156200001157600080fd5b506200001c62000022565b62000086565b7f8e94fed44239eb2314ab7a406345e6c5a8f0ccedf3b600de3d004e672c33abf480546001909155801562000083576040805162461bcd60e51b815260206004820152600260248201526118a160f11b604482015290519081900360640190fd5b50565b615c2580620000966000396000f3fe6080604052600436106101ee5760003560e01c8063839818081161010d578063b269b9ae116100a0578063d083df7b1161006f578063d083df7b1461052c578063d514da501461054c578063d57ec63d1461056c578063f29734c814610587578063f999ec88146105a7576101ee565b8063b269b9ae14610417578063b73b5746146104cc578063c731e1f3146104ec578063cedc29641461050c576101ee565b8063922ddf43116100dc578063922ddf431461046157806396a700ac146104815780639beb465014610496578063a05d64f0146104b1576101ee565b806383981808146103f7578063871b8ff1146104175780638773334c1461042c5780638ae20dc914610441576101ee565b806347b777a2116101855780635aca41f6116101545780635aca41f61461037557806368809a23146103a257806378753a48146103c257806378b91e70146103e2576101ee565b806347b777a2146102f5578063505a75731461032257806358c22be71461034257806359acda8514610355576101ee565b8063397f145f116101c1578063397f145f146102805780633b154b73146102a0578063439fab91146102b557806345269298146102d5576101ee565b8063100d5e69146101f35780631d1796431461021557806325394645146102355780632a3174f414610255575b600080fd5b3480156101ff57600080fd5b5061021361020e36600461527d565b6105c7565b005b34801561022157600080fd5b50610213610230366004614ffd565b6105d4565b34801561024157600080fd5b50610213610250366004614eb1565b6105e9565b34801561026157600080fd5b5061026a610648565b60405161027791906159a5565b60405180910390f35b34801561028c57600080fd5b5061021361029b366004614b0b565b61064d565b3480156102ac57600080fd5b50610213610659565b3480156102c157600080fd5b506102136102d0366004614eb1565b61065f565b3480156102e157600080fd5b506102136102f03660046150de565b61089e565b34801561030157600080fd5b50610315610310366004615228565b610ade565b604051610277919061599a565b34801561032e57600080fd5b5061021361033d3660046152bc565b610afc565b610213610350366004614b38565b610d58565b34801561036157600080fd5b50610213610370366004614e81565b610de6565b34801561038157600080fd5b50610395610390366004614ad3565b610df1565b6040516102779190615abc565b3480156103ae57600080fd5b506103956103bd366004614f47565b610ec2565b3480156103ce57600080fd5b506102136103dd366004614ee4565b61106f565b3480156103ee57600080fd5b5061021361107d565b34801561040357600080fd5b50610213610412366004614da1565b6110ab565b34801561042357600080fd5b506102136112cd565b34801561043857600080fd5b506103156112d7565b34801561044d57600080fd5b5061026a61045c366004614b65565b6112dc565b34801561046d57600080fd5b5061021361047c366004614fa2565b6112f9565b34801561048d57600080fd5b50610213611695565b3480156104a257600080fd5b5061021361029b366004614b90565b3480156104bd57600080fd5b506102136103dd36600461534f565b3480156104d857600080fd5b506103156104e7366004615228565b61169d565b3480156104f857600080fd5b50610213610507366004614bcf565b6116b9565b34801561051857600080fd5b50610213610527366004615314565b611918565b34801561053857600080fd5b506102136105473660046152d6565b611a2a565b34801561055857600080fd5b50610213610567366004614a89565b611cbb565b34801561057857600080fd5b5061021361020e366004614d2c565b34801561059357600080fd5b506103156105a2366004615260565b611f62565b3480156105b357600080fd5b506103156105c2366004615228565b611fb9565b6105cf6120a5565b505050565b6105dc6120a5565b5050505050505050505050565b600080516020615bd0833981519152546001811461060657600080fd5b50506000600b5550600a80546001600160a01b031916732cba8d7734bfd426a41b0c535ab6798e6d02591f1790556001600080516020615bd083398151915255565b600090565b6106556120a5565b5050565b42600c55565b6106676120e0565b73de03a0b5963f75f1c8485b355ff6d30f3093bde7600080808061068d86880188614a39565b600080546001600160a01b03199081166001600160a01b03878116919091178355600a8054909216858216179091557f1471eb6eb2c5e789fc3de43f8ce62938c7d1836ec861730447e2ada8fd81017b805462010000600160b01b03191662010000878416021790558a81168252600460208190526040808420805461ffff191660019081179091559354905163a21ec20160e01b8152979b5095995093975091955092169263a21ec20192610747928a928291016158a7565b600060405180830381600087803b15801561076157600080fd5b505af1158015610775573d6000803e3d6000fd5b505060016000818152600560209081527f1471eb6eb2c5e789fc3de43f8ce62938c7d1836ec861730447e2ada8fd81017b805461ffff19169093179092556040805160c0810182528281529283018290527fc5d2460186f7233c927e7db2dcc703c0e500b653ca82273b7bfad8045d85a47090830152606082018190526080820185905260a0820152915061080b90508161212e565b60008080527f1471eb6eb2c5e789fc3de43f8ce62938c7d1836ec861730447e2ada8fd81017e6020527f28e1aae0555ea70dfe1c12dab962be0eae345e0bd549676c4c3ec0d0814fea6a91909155600b8190556040517ff2b18f8abbd8a0d0c1fb8245146eedf5304887b12f6395b548ca238e054a14839161088c916159a5565b60405180910390a15050505050505050565b600080516020615bd083398151915254600181146108bb57600080fd5b6002600080516020615bd0833981519152553360009081526004602052604090205461ffff166108ea8161215e565b6000546040516323695a4160e11b81526001600160a01b03909116906346d2b4829061091c90339085906004016157d5565b60006040518083038186803b15801561093457600080fd5b505afa158015610948573d6000803e3d6000fd5b5050505061ffff811660009081526005602052604090206109688561212e565b8154600160d01b900463ffffffff1660009081526003830160205260409020541461099257600080fd5b60005b84518163ffffffff161015610a71576109c886868363ffffffff16815181106109ba57fe5b602002602001015185612182565b60208101516002840180546001600160401b03600160881b80830482169094011690920267ffffffffffffffff60881b199092169190911790559550610a0d8661212e565b865163ffffffff90811660009081526003850160205260409081902092909255875191519116907fe86a6843550eabc7bd5e4f0f61df6aadc50ac84e7a4acae1857afb49092cdcf190610a61908690615aed565b60405180910390a2600101610995565b508351815463ffffffff600160d01b80830482169093011690910263ffffffff60d01b1990911617815560028101546001600160401b03600160481b82048116600160881b909204161115610ac557600080fd5b50506001600080516020615bd083398151915255505050565b61ffff8082166000908152600560205260409020541615155b919050565b600080516020615bd08339815191525460018114610b1957600080fd5b6002600080516020615bd083398151915281905563ffffffff808416600090815260096020908152604091829020825160c081018452815480861682526001600160a01b0364010000000082048116948301859052600160c01b909104861694820194909452600182015460608201529401549182166080850152600160a01b90910490911660a0830152610bad57600080fd5b600080548251602084015160405163b79eb8c760e01b81526001600160a01b039093169263b79eb8c792610be5929091600401615afc565b60206040518083038186803b158015610bfd57600080fd5b505afa158015610c11573d6000803e3d6000fd5b505050506040513d601f19601f82011682018060405250810190610c359190614a1d565b63ffffffff8516600090815260086020908152604080832080546001600160a01b0319166001600160a01b0386169081179091556009835281842080546001600160e01b03191681556001810194909455600290930180546001600160c01b0319169055908501516080860151865187840151606089015160a08a01519551630234ce5960e41b8152979850959663234ce59096610cd7969091600401615869565b600060405180830381600087803b158015610cf157600080fd5b505af1158015610d05573d6000803e3d6000fd5b505050508160a0015163ffffffff167f0b9f3586023bf754b8d962232407f7ac4d90fd19a1c4756c6619927abf06756060405160405180910390a250506001600080516020615bd0833981519152555050565b6001600160a01b038281161415610d6e57600080fd5b60003411610d7b57600080fd5b610d848161215e565b61ffff811660009081526005602052604090206006015460ff1615610dd15761ffff8116600090815260056020908152604080832033845260070190915290205460ff16610dd157600080fd5b6106556000610ddf34612279565b84846122bc565b610dee6120a5565b50565b6000806001600160a01b03831615610e86576000546040516375698bb160e11b81526001600160a01b039091169063ead3176290610e33908690600401615795565b60206040518083038186803b158015610e4b57600080fd5b505afa158015610e5f573d6000803e3d6000fd5b505050506040513d601f19601f82011682018060405250810190610e839190615244565b90505b60016000610e94868461235c565b6001600160501b03191681526020810191909152604001600020546001600160801b03169150505b92915050565b6000333014610ed057600080fd5b6040516370a0823160e01b81526000906001600160a01b038716906370a0823190610eff903090600401615795565b60206040518083038186803b158015610f1757600080fd5b505afa158015610f2b573d6000803e3d6000fd5b505050506040513d601f19601f82011682018060405250810190610f4f9190614e99565b60405163a9059cbb60e01b81529091506001600160a01b0387169063a9059cbb90610f8090889088906004016158cc565b600060405180830381600087803b158015610f9a57600080fd5b505af1158015610fae573d6000803e3d6000fd5b50506040516370a0823160e01b8152600092506001600160a01b03891691506370a0823190610fe1903090600401615795565b60206040518083038186803b158015610ff957600080fd5b505afa15801561100d573d6000803e3d6000fd5b505050506040513d601f19601f820116820180604052508101906110319190614e99565b9050600061103f8383612379565b90506000811161104e57600080fd5b846001600160801b031681111561106457600080fd5b979650505050505050565b6110776120a5565b50505050565b600b54600c5461108c9161239f565b42101561109857600080fd5b6002805460ff1916600117905542600355565b600080516020615bd083398151915254600181146110c857600080fd5b6002600080516020615bd0833981519152553360009081526004602052604090205461ffff166110f78161215e565b61ffff811660009081526005602052604081206004810154909163ffffffff909116905b86518110156111cb5763ffffffff60018301166000908152600384016020526040902054875161115e9089908490811061115157fe5b602002602001015161212e565b1461116857600080fd5b8160010191506001600160fd1b0387828151811061118257fe5b602002602001015160a0015160001c166001600160fd1b038561ffff16886040015184815181106111af57fe5b60200260200101510316146111c357600080fd5b60010161111b565b5081548551602087015160608801516040808a015160808b0151915163054185eb60e51b81526000966201000090046001600160a01b03169563a830bd609561121c959194909391926004016158ee565b60206040518083038186803b15801561123457600080fd5b505afa158015611248573d6000803e3d6000fd5b505050506040513d601f19601f8201168201806040525081019061126c9190614e65565b90508061127857600080fd5b825463ffffffff600160d01b9091048116908316111561129757600080fd5b50600491909101805463ffffffff191663ffffffff90921691909117905550506001600080516020615bd0833981519152555050565b6112d56123de565b565b600190565b600660209081526000928352604080842090915290825290205481565b600080516020615bd0833981519152546001811461131657600080fd5b6002600080516020615bd0833981519152556001600160a01b03838116141561133e57600080fd5b61ffff8083166000908152600560205260409020541661135d57600080fd5b6113668261215e565b61ffff821660009081526005602052604090206006015460ff16156113b35761ffff8216600090815260056020908152604080832033845260070190915290205460ff166113b357600080fd5b600080546040516375698bb160e11b81526001600160a01b039091169063ead31762906113e4908990600401615795565b60206040518083038186803b1580156113fc57600080fd5b505afa158015611410573d6000803e3d6000fd5b505050506040513d601f19601f820116820180604052508101906114349190615244565b60005460405163f3a65bf960e01b81529192506001600160a01b03169063f3a65bf990611465908490600401615aed565b60206040518083038186803b15801561147d57600080fd5b505afa158015611491573d6000803e3d6000fd5b505050506040513d601f19601f820116820180604052508101906114b59190614e65565b156114bf57600080fd5b6040516370a0823160e01b81526000906001600160a01b038816906370a08231906114ee903090600401615795565b60206040518083038186803b15801561150657600080fd5b505afa15801561151a573d6000803e3d6000fd5b505050506040513d601f19601f8201168201806040525081019061153e9190614e99565b6040516323b872dd60e01b81529091506001600160a01b038816906323b872dd9061157190339030908b906004016157a9565b600060405180830381600087803b15801561158b57600080fd5b505af115801561159f573d6000803e3d6000fd5b50506040516370a0823160e01b8152600092506001600160a01b038a1691506370a08231906115d2903090600401615795565b60206040518083038186803b1580156115ea57600080fd5b505afa1580156115fe573d6000803e3d6000fd5b505050506040513d601f19601f820116820180604052508101906116229190614e99565b905060006116386116338385612379565b612279565b90506000816001600160801b031611801561166357506001600160681b036001600160801b03821611155b61166c57600080fd5b611678848289896122bc565b505050506001600080516020615bd0833981519152555050505050565b6112d56120a5565b61ffff1660009081526005602052604090206006015460ff1690565b600080516020615bd083398151915254600181146116d657600080fd5b6002600080516020615bd0833981519152553360009081526004602052604090205461ffff166117058161215e565b6000546040516323695a4160e11b81526001600160a01b03909116906346d2b4829061173790339085906004016157d5565b60006040518083038186803b15801561174f57600080fd5b505afa158015611763573d6000803e3d6000fd5b50508551600092509050815b8163ffffffff168163ffffffff161015611835576117a8878263ffffffff168151811061179857fe5b6020026020010151828887612461565b868163ffffffff16815181106117ba57fe5b6020026020010151600001516020015183019250868163ffffffff16815181106117e057fe5b6020026020010151600001516000015163ffffffff167f144a4b0156fb1d984d373ca605b66c107b37d3c9f02e84ebc3a6926e6e67e2b8856040516118259190615aed565b60405180910390a260010161176f565b5061ffff83166000908152600560205260409020600281018054600160481b600160881b6001600160401b036101008085048216890182160268ffffffffffffffff0019909416939093178181048416889003841690910267ffffffffffffffff60881b199091161781810483168790039092160267ffffffffffffffff60481b19909116179055805463ffffffff600160b01b808304821685018216810263ffffffff60b01b1990931692909217808455600484015482169290041611156118fd57600080fd5b505050506001600080516020615bd083398151915255505050565b600080516020615bd0833981519152546001811461193557600080fd5b6002600080516020615bd0833981519152556119508261215e565b62ffffff63ffffffff8516111561196657600080fd5b63ffffffff841662ffffff141561197c57600080fd5b63ffffffff831661ffff10801561199c5750637ffffffe63ffffffff8416105b6119a557600080fd5b604080516101208101825263ffffffff808716825233602083015285169181019190915261ffff8316606082015260006080820181905260a0820181905260c0820181905260e082018190526101008201819052611a0282612848565b9050611a1060068286612891565b50506001600080516020615bd08339815191525550505050565b600080516020615bd08339815191525460018114611a4757600080fd5b6002600080516020615bd083398151915255611a628361215e565b62ffffff63ffffffff86161115611a7857600080fd5b63ffffffff851662ffffff1415611a8e57600080fd5b60006001600160a01b038516611aa657506000611b29565b6000546040516375698bb160e11b81526001600160a01b039091169063ead3176290611ad6908890600401615795565b60206040518083038186803b158015611aee57600080fd5b505afa158015611b02573d6000803e3d6000fd5b505050506040513d601f19601f82011682018060405250810190611b269190615244565b90505b61ffff8316611ba557604080516101208101825263ffffffff8816815233602082015261ffff80841692820192909252908516606082015260006080820181905260a0820181905260c0820181905260e082018190526101008201819052611b9082612848565b9050611b9e60068288612891565b5050611c6a565b61ffff831660009081526005602052604090206006015460ff1615611bf25761ffff8316600090815260056020908152604080832033845260070190915290205460ff16611bf257600080fd5b604080516101408101825263ffffffff8816815233602082015261ffff8084169282019290925285821660608201529084166080820152600060a0820181905260c0820181905260e0820181905261010082018190526101208201819052611c5982612a1b565b9050611c67600d8288612891565b50505b6000611c76338361235c565b6001600160501b0319166000908152600160208190526040909120805460ff60801b191660ff60801b179055600080516020615bd08339815191525550505050505050565b600080516020615bd08339815191525460018114611cd857600080fd5b6002600080516020615bd08339815191525560006001600160a01b03841615611d7e576000546040516375698bb160e11b81526001600160a01b039091169063ead3176290611d2b908790600401615795565b60206040518083038186803b158015611d4357600080fd5b505afa158015611d57573d6000803e3d6000fd5b505050506040513d601f19601f82011682018060405250810190611d7b9190615244565b90505b6000611d8a868361235c565b6001600160501b031981166000908152600160205260408120549192506001600160801b0390911690611dbd8287612a54565b90506000816001600160801b031611611dd557600080fd5b61ffff8416611e56576000886001600160a01b0316826001600160801b0316604051611e00906155cf565b60006040518083038185875af1925050503d8060008114611e3d576040519150601f19603f3d011682016040523d82523d6000602084013e611e42565b606091505b5050905080611e5057600080fd5b50611ed4565b6040516368809a2360e01b815230906368809a2390611e7f908a908c90869088906004016159ae565b602060405180830381600087803b158015611e9957600080fd5b505af1158015611ead573d6000803e3d6000fd5b505050506040513d601f19601f82011682018060405250810190611ed1919061520c565b90505b6001600160501b031983166000908152600160205260409081902080546001600160801b0319168385036001600160801b03161790555161ffff8516907ff4bf32c167ee6e782944cd1db8174729b46adcd3bc732e282cc4a8079393315490611f3e908490615abc565b60405180910390a2505050506001600080516020615bd08339815191525550505050565b61ffff821660009081526005602052604081206006015460ff161580611fb2575061ffff831660009081526005602090815260408083206001600160a01b038616845260070190915290205460ff165b9392505050565b61ffff81166000908152600560205260408120600281015460ff1615611fe3576000915050610af7565b60028101546001600160401b03610100909104811660009081526005830160205260408120549091600160a01b90910416431080159061204f575060028201546001600160401b0361010090910481166000908152600584016020526040902054600160a01b90041615155b90508015611fb25760028201805460ff191660011790556040517f6d721ae1ebab6c1ad0c998c3697ef7c6cb3d3c3e031263070d3736dedf4d6ed590612096908690615aed565b60405180910390a19392505050565b600a546040516001600160a01b039091169036600082376000803683855af43d806000843e8180156120d5578184f35b8184fd5b5050505050565b600080516020615bd0833981519152805460019091558015610dee576040805162461bcd60e51b815260206004820152600260248201526118a160f11b604482015290519081900360640190fd5b6000816040516020016121419190615a69565b604051602081830303815290604052805190602001209050919050565b61ffff811660009081526005602052604090206002015460ff1615610dee57600080fd5b61218a614474565b836000015160010163ffffffff16836080015163ffffffff16146121ad57600080fd5b8360600151836040015110156121c257600080fd5b60408301516000906121d74262015180612379565b1115905060006121e94261038461239f565b8560400151111590508180156121fc5750805b61220557600080fd5b505060008060006122168686612a7c565b9250925092506000612229888884612e8b565b6040805160c0810182526080808b015163ffffffff1682526001600160401b039096166020820152808201969096528801516060860152875193850193909352505060a082015290509392505050565b6000600160801b82106122b8576040805162461bcd60e51b8152602060048201526002602482015261189b60f11b604482015290519081900360640190fd5b5090565b6040805160a081018252600080825261ffff80881660208401526001600160801b038716938301939093526001600160a01b0385166060830152918316608082015290612308826130ce565b905061231660018285612891565b8561ffff167f677c66bee1c983844399d33e396bdc1db4e8c70ccb973f622b0d396c6a50878e868560405161234c929190615ad0565b60405180910390a2505050505050565b60a01b61ffff60a01b166001600160a01b03919091161760501b90565b6000611fb28383604051806040016040528060018152602001603b60f91b8152506130fa565b600082820183811015611fb2576040805162461bcd60e51b81526020600482015260026024820152610c4d60f21b604482015290519081900360640190fd5b6002805460ff1916905560006003819055600b8190556040517ff2b18f8abbd8a0d0c1fb8245146eedf5304887b12f6395b548ca238e054a148391612422916159a5565b60405180910390a16000600c8190555b6003811015612459576000818152600d60205260409020805460ff19169055600101612432565b506000600e55565b61ffff8116600090815260056020908152604080832087515163ffffffff168452600381019092529091205485516124989061212e565b146124a257600080fd5b8054855151600160b01b90910463ffffffff908116860160010181169116146124ca57600080fd5b7fc5d2460186f7233c927e7db2dcc703c0e500b653ca82273b7bfad8045d85a47060005b8660200151518163ffffffff16101561282e57600087602001518263ffffffff168151811061251957fe5b6020026020010151905060008160008151811061253257fe5b016020015160f81c600d81111561254557fe5b9050600381600d81111561255557fe5b14156125a557600061256683613191565b905061ffff63ffffffff16816000015163ffffffff16111561258757600080fd5b61259f888260000151836040015184602001516131ec565b50612815565b600881600d8111156125b357fe5b14156125c45760006125668361320d565b600681600d8111156125d257fe5b14156126b05760006125e383613221565b905061ffff63ffffffff16816040015163ffffffff161161261b57612616888260400151836020015184608001516131ec565b61259f565b80608001516001600160801b03166001141561259f5760006040518060c001604052808360a0015163ffffffff1681526020018360c001516001600160a01b031681526020018360e0015163ffffffff168152602001836101000151815260200183602001516001600160a01b03168152602001836040015163ffffffff1681525090506126a9898261331f565b5050612815565b600a81600d8111156126be57fe5b14156126db5760006126cf8361333c565b905061259f888261331f565b600c81600d8111156126e957fe5b14156127985760006126fa836133d3565b905061ffff63ffffffff16816000015163ffffffff16111561271b57600080fd5b606081015161ffff1660009081526005602052604090206006015460ff161561277c57606081015161ffff166000908152600560209081526040808320818501516001600160a01b0316845260070190915290205460ff1661277c57600080fd5b61259f81600001518260200151836040015184606001516122bc565b600d81600d8111156127a657fe5b14156127f45760006127b783613443565b905061ffff63ffffffff16816040015163ffffffff1611156127d857600080fd5b61259f81604001518260a00151836020015184608001516122bc565b60405162461bcd60e51b815260040161280c906159fd565b60405180910390fd5b61281f8483613551565b935050508060010190506124ee565b50855160400151811461284057600080fd5b505050505050565b6060600682516020808501516040808701516060880151915161287b969594919291600091829182918291829101615642565b6040516020818303038152906040529050919050565b61ffff81166000908152600560205260408120600281015490914362013b00019161010081046001600160401b03908116600160481b9092041601906128d686613560565b90506040518060600160405280826bffffffffffffffffffffffff19168152602001846001600160401b0316815260200188600d81111561291357fe5b90526001600160401b0380841660009081526005870160209081526040918290208451815492860151909416600160a01b0267ffffffffffffffff60a01b1960609590951c6001600160a01b03199093169290921793909316178083559083015190829060ff60e01b1916600160e01b83600d81111561298f57fe5b02179055509050507f72615690f26bce39ae50083d5e454d3569c1a9f719c7d8f5b91381d3cdce609333838989876001600160401b03168a6040516129d9969594939291906157f2565b60405180910390a1505050600201805460016001600160401b03600160481b808404821692909201160267ffffffffffffffff60481b19909116179055505050565b6060600d825160208085015160408087015160608801516080890151925161287b979695929391926000918291829182918291016156e8565b6000816001600160801b0316836001600160801b031610612a755781611fb2565b5090919050565b60208083015161ffff831660009081526005909252604082206002015481517fc5d2460186f7233c927e7db2dcc703c0e500b653ca82273b7bfad8045d85a4709392606092909161010082046001600160401b03908116600160881b909304169190910190600a900615612aef57600080fd5b8151600a90046001600160401b0381118015612b0a57600080fd5b506040519080825280601f01601f191660200182016040528015612b35576020820181803683370190505b50925060005b876060015151811015612e8157600088606001518281518110612b5a57fe5b602002602001015190506000816020015163ffffffff16905084518110612b8057600080fd5b600a810615612b8e57600080fd5b6000600a82049050868181518110612ba257fe5b01602001516001600160f81b03191615612bbb57600080fd5b600160f81b878281518110612bcc57fe5b60200101906001600160f81b031916908160001a9053506000868381518110612bf157fe5b016020015160f81c600d811115612c0457fe5b9050600181600d811115612c1457fe5b1415612c68576000612c288885603c61356e565b90506000612c358261362a565b90508c61ffff16816080015161ffff1614612c4f57600080fd5b612c5b818c8a016136c8565b5050600190980197612e72565b600781600d811115612c7657fe5b1415612d3f576000612c8a8885603c61356e565b90506000612c978261374b565b61ffff8e16606082015286515190915015612cce576000612cbc8760000151836137bb565b905080612cc857600080fd5b50612d38565b60008160200151604051602001612ce59190615461565b60408051601f198184030181529181528151602092830120848201516001600160a01b0316600090815260068452828120608087015163ffffffff16825290935291205414905080612d3657600080fd5b505b5050612e72565b6060600382600d811115612d4f57fe5b1415612d6857612d618885603c61356e565b9050612e64565b600882600d811115612d7657fe5b1415612d8857612d618885603c61356e565b600a82600d811115612d9657fe5b1415612da857612d618885606461356e565b600682600d811115612db657fe5b1415612df057612dc88885606e61356e565b90506000612dd582613221565b9050612de4818c8a018f61385a565b50600190990198612e64565b600d82600d811115612dfe57fe5b1415612e2c57612e108885606e61356e565b90506000612e1d82613443565b9050612de4818c8a018f6138d9565b600c82600d811115612e3a57fe5b1415612e4c57612d618885603c61356e565b60405162461bcd60e51b815260040161280c90615a4e565b612e6e8b82613551565b9a50505b50505050806001019050612b3b565b5050509250925092565b6000806002846080015163ffffffff168560a0015163ffffffff16604051602001612eb792919061548e565b60408051601f1981840301815290829052612ed19161549c565b602060405180830381855afa158015612eee573d6000803e3d6000fd5b5050506040513d601f19601f82011682018060405250810190612f119190614e99565b90506002818660800151604051602001612f2c92919061548e565b60408051601f1981840301815290829052612f469161549c565b602060405180830381855afa158015612f63573d6000803e3d6000fd5b5050506040513d601f19601f82011682018060405250810190612f869190614e99565b8451604051919250600291612f9f91849160200161548e565b60408051601f1981840301815290829052612fb99161549c565b602060405180830381855afa158015612fd6573d6000803e3d6000fd5b5050506040513d601f19601f82011682018060405250810190612ff99190614e99565b9050600281856040015160405160200161301492919061548e565b60408051601f198184030181529082905261302e9161549c565b602060405180830381855afa15801561304b573d6000803e3d6000fd5b5050506040513d601f19601f8201168201806040525081019061306e9190614e99565b905060008460200151846040516020016130899291906154b8565b60405160208183030381529060405290506040518151838352602082602083018560025afa8184528080156130bd576130bf565bfe5b50509051979650505050505050565b6060600160208084015160408086015160608701516080880151925161287b96956000959491016155d2565b600081848411156131895760405162461bcd60e51b81526004018080602001828103825283818151815260200191508051906020019080838360005b8381101561314e578181015183820152602001613136565b50505050905090810190601f16801561317b5780820380516001836020036101000a031916815260200191505b509250505060405180910390fd5b505050900390565b6131996144a9565b60056131a5838261394f565b63ffffffff16835290506131b98382613968565b6001600160801b0316602084015260020190506131d68382613978565b6001600160a01b03166040840152509092915050565b8315613202576131fd838383613988565b611077565b611077838383613b0f565b6132156144a9565b60096131a5838261394f565b6132296144c9565b6001613235838261394f565b63ffffffff16835290506132498382613978565b6001600160a01b031660208401529050613263838261394f565b63ffffffff166040840152905061327a8382613b73565b61ffff166060840152905061328f8382613968565b6001600160801b0316608084015290506132a9838261394f565b63ffffffff1660a084015290506132c08382613978565b6001600160a01b031660c084015290506132da838261394f565b63ffffffff1660e084015290506132f18382613b83565b6101008401529050606b81146133195760405162461bcd60e51b815260040161280c90615a33565b50919050565b81156133335761332e81613b93565b610655565b61065581613d0f565b613344614474565b6005613350838261394f565b63ffffffff16835290506133648382613978565b6001600160a01b03166020840152905061337e838261394f565b63ffffffff16604084015290506133958382613b83565b606084015290506133a68382613978565b6001600160a01b0316608084015290506133c0838261394f565b63ffffffff1660a0840152509092915050565b6133db614515565b60056133e7838261394f565b63ffffffff16835290506133fb8382613968565b6001600160801b0316602084015260020190506134188382613978565b6001600160a01b0316604084015290506134328382613b73565b61ffff166060840152509092915050565b61344b61453c565b6001613457838261394f565b63ffffffff168352905061346b8382613978565b6001600160a01b031660208401529050613485838261394f565b63ffffffff166040840152905061349c8382613b73565b61ffff16606084015290506134b18382613b73565b61ffff16608084015290506134c68382613968565b6001600160801b031660a084015290506134e0838261394f565b63ffffffff1660c084015290506134f78382613978565b6001600160a01b031660e08401529050613511838261394f565b63ffffffff1661010084015290506135298382613b83565b6101208401529050606d81146133195760405162461bcd60e51b815260040161280c90615a33565b80519181526020909101902090565b805160209091012060601b90565b6060818301845110156135ac576040805162461bcd60e51b81526020600482015260016024820152602d60f91b604482015290519081900360640190fd5b6000826001600160401b03811180156135c457600080fd5b506040519080825280601f01601f1916602001820160405280156135ef576020820181803683370190505b509050821561362257602081018381016020860187015b8183101561361e578051835260209283019201613606565b5050505b949350505050565b613632614590565b600161363e838261394f565b63ffffffff1683529050613652838261394f565b63ffffffff16602084015290506136698382613968565b6001600160801b0316604084015290506136838382613978565b6001600160a01b03166060840152905061369d8382613b73565b61ffff1660808401529050602f81146133195760405162461bcd60e51b815260040161280c90615a18565b608082015161ffff1660009081526005602081815260408084206001600160401b038616855292830190915290912054600160e01b900460ff16600181600d81111561371057fe5b1461371a57600080fd5b6001600160401b038316600090815260058301602052604090205460601b6137428582613df5565b6120d957600080fd5b613753614590565b600161375f838261394f565b63ffffffff16835290506137738382613e25565b6001600160601b0319166020840152905061378e8382613978565b6001600160a01b0316604084015290506137a8838261394f565b63ffffffff166080840152509092915050565b600080836000815181106137cb57fe5b016020015160f81c60028111156137de57fe5b905060008160028111156137ee57fe5b1415613806576137fe8484613e35565b915050610ebc565b600181600281111561381457fe5b1415613824576137fe8484613eb8565b600281600281111561383257fe5b1415613842576137fe8484613f90565b60405162461bcd60e51b815260040161280c906159e2565b61ffff811660009081526005602081815260408084206001600160401b038716855292830190915290912054600160e01b900460ff16600681600d81111561389e57fe5b146138a857600080fd5b6001600160401b038416600090815260058301602052604090205460601b6138d08682614024565b61284057600080fd5b61ffff811660009081526005602081815260408084206001600160401b038716855292830190915290912054600160e01b900460ff16600d81600d81111561391d57fe5b1461392757600080fd5b6001600160401b038416600090815260058301602052604090205460601b6138d0868261403d565b60048101600061395f8484614056565b90509250929050565b60108101600061395f84846140a4565b60148101600061395f84846140e7565b600061ffff84166139af57826139a7816001600160801b03851661412a565b915050613ac1565b600080546040516310603dad60e01b81526001600160a01b03909116906310603dad906139e0908890600401615aed565b60206040518083038186803b1580156139f857600080fd5b505afa158015613a0c573d6000803e3d6000fd5b505050506040513d601f19601f82011682018060405250810190613a309190614a1d565b6040516368809a2360e01b815290915030906368809a2390620186a090613a619085908990899081906004016159ae565b602060405180830381600088803b158015613a7b57600080fd5b5087f193505050508015613aac575060408051601f3d908101601f19168201909252613aa99181019061520c565b60015b613ab95760009150613abf565b50600191505b505b8015613b08578361ffff167ff4bf32c167ee6e782944cd1db8174729b46adcd3bc732e282cc4a8079393315483604051613afb9190615abc565b60405180910390a2611077565b6110778484845b6000613b1b838561235c565b9050613b278183614196565b826001600160a01b03168461ffff167f822cba452e09c71c51db196553ac44d860c4d2d66e311eff0066a7910c0dc87084604051613b659190615abc565b60405180910390a350505050565b60028101600061395f8484614234565b60208101600061395f8484614277565b600080548251602084015160405163b79eb8c760e01b81526001600160a01b039093169263b79eb8c792613bcb929091600401615afc565b60206040518083038186803b158015613be357600080fd5b505afa158015613bf7573d6000803e3d6000fd5b505050506040513d601f19601f82011682018060405250810190613c1b9190614a1d565b9050806001600160a01b031663234ce590620493e0846020015185608001518660000151876040015188606001518960a001516040518863ffffffff1660e01b8152600401613c6f96959493929190615869565b600060405180830381600088803b158015613c8957600080fd5b5087f193505050508015613c9b575060015b613ca85761332e82613d0f565b60a08201805163ffffffff90811660009081526008602052604080822080546001600160a01b0319166001600160a01b0387161790559251925192909116917f0b9f3586023bf754b8d962232407f7ac4d90fd19a1c4756c6619927abf0675609190a25050565b60a08101805163ffffffff908116600090815260096020908152604080832086518154938801518389015163ffffffff1990951691871691909117640100000000600160c01b0319166401000000006001600160a01b03928316021763ffffffff60c01b1916600160c01b948716949094029390931781556060870151600182015560808701516002909101805496516001600160a01b0319909716919093161763ffffffff60a01b1916600160a01b9590941694850293909317905590517f1d19de6753fc463923c3d90b6fb45aca536732ed7c5ca377d4b3f63dfbe4d8199190a250565b60006001600160601b03198216613e13613e0e856130ce565b613560565b6001600160601b031916149392505050565b60148101600061395f84846142ba565b600080613e458460016041614302565b915050600083602001518460800151856000015186606001516000801b604051602001613e769594939291906154e7565b6040516020818303038152906040528051906020012090506000613e9a838361431d565b60408601516001600160a01b03918216911614935050505092915050565b60008080806001613ec98782613978565b94509050613ed78782613b83565b93509050613ee58782613b83565b602080890151604051929550929350600092613f0392879201615476565b60408051601f198184030181529082905280516020918201209250600091613f3b916001600160f81b0319918991869189910161542d565b6040516020818303038152906040528051906020012060001c905087604001516001600160a01b0316816001600160a01b0316148015613f835750608088015163ffffffff16155b9998505050505050505050565b6000806000613fa28560016041614302565b915091506000613fb28684613b83565b9150506000856020015186608001518760000151886060015185604051602001613fe095949392919061555b565b6040516020818303038152906040528051906020012090506000614004848361431d565b60408801516001600160a01b039182169116149550505050505092915050565b60006001600160601b03198216613e13613e0e85612848565b60006001600160601b03198216613e13613e0e85612a1b565b6000808260040190508084511015614099576040805162461bcd60e51b81526020600482015260016024820152602b60f91b604482015290519081900360640190fd5b929092015192915050565b6000808260100190508084511015614099576040805162461bcd60e51b81526020600482015260016024820152605760f81b604482015290519081900360640190fd5b6000808260140190508084511015614099576040805162461bcd60e51b81526020600482015260016024820152602960f91b604482015290519081900360640190fd5b600080836001600160a01b0316620186a084604051614148906155cf565b600060405180830381858888f193505050503d8060008114614186576040519150601f19603f3d011682016040523d82523d6000602084013e61418b565b606091505b509095945050505050565b6001600160501b03198216600090815260016020526040908190205481518083019092526001600160801b031690806141cf8385614429565b6001600160801b03908116825260ff60209283018190526001600160501b031990961660009081526001835260409020835181549490930151909616600160801b0260ff60801b19929091166001600160801b03199093169290921716179092555050565b6000808260020190508084511015614099576040805162461bcd60e51b81526020600482015260016024820152601560fa1b604482015290519081900360640190fd5b6000808260200190508084511015614099576040805162461bcd60e51b81526020600482015260016024820152605960f81b604482015290519081900360640190fd5b600081601401835110156142f9576040805162461bcd60e51b81526020600482015260016024820152605360f81b604482015290519081900360640190fd5b50016020015190565b6000606061431185858561356e565b93909201949293505050565b60008251604114614359576040805162461bcd60e51b81526020600482015260016024820152600560fc1b604482015290519081900360640190fd5b60008060006020860151925060408601519150606086015160001a9050600060018683868660405160008152602001604052604051808581526020018460ff1681526020018381526020018281526020019450505050506020604051602081039080840390855afa1580156143d2573d6000803e3d6000fd5b5050604051601f1901519150506001600160a01b03811661441f576040805162461bcd60e51b81526020600482015260026024820152611c0d60f21b604482015290519081900360640190fd5b9695505050505050565b60008282016001600160801b038085169082161015611fb2576040805162461bcd60e51b8152602060048201526002602482015261189960f11b604482015290519081900360640190fd5b6040805160c081018252600080825260208201819052918101829052606081018290526080810182905260a081019190915290565b604080516060810182526000808252602082018190529181019190915290565b6040805161012081018252600080825260208201819052918101829052606081018290526080810182905260a0810182905260c0810182905260e0810182905261010081019190915290565b60408051608081018252600080825260208201819052918101829052606081019190915290565b6040805161014081018252600080825260208201819052918101829052606081018290526080810182905260a0810182905260c0810182905260e08101829052610100810182905261012081019190915290565b6040805160a08101825260008082526020820181905291810182905260608101829052608081019190915290565b60008083601f8401126145cf578182fd5b5081356001600160401b038111156145e5578182fd5b60208301915083602080830285010111156145ff57600080fd5b9250929050565b600082601f830112614616578081fd5b8135602061462b61462683615b3e565b615b1b565b82815281810190858301855b858110156146bb5781358801604080601f19838d03011215614657578889fd5b80518181016001600160401b03828210818311171561467257fe5b908352838901359080821115614686578b8cfd5b506146958d8a83870101614844565b8252506146a38284016149f2565b81890152865250509284019290840190600101614637565b5090979650505050505050565b600082601f8301126146d8578081fd5b6040516102008082018281106001600160401b03821117156146f657fe5b6040528184828101871015614709578485fd5b8492505b601083101561472d5780358252600192909201916020918201910161470d565b509195945050505050565b600082601f830112614748578081fd5b8135602061475861462683615b3e565b8281528181019085830183850287018401881015614774578586fd5b855b858110156146bb57813584529284019290840190600101614776565b600082601f8301126147a2578081fd5b813560206147b261462683615b3e565b82815281810190858301838502870184018810156147ce578586fd5b855b858110156146bb57813560ff811681146147e8578788fd5b845292840192908401906001016147d0565b8035610af781615b9c565b60008083601f840112614816578182fd5b5081356001600160401b0381111561482c578182fd5b6020830191508360208285010111156145ff57600080fd5b600082601f830112614854578081fd5b81356001600160401b0381111561486757fe5b61487a601f8201601f1916602001615b1b565b81815284602083860101111561488e578283fd5b816020850160208301379081016020019190915292915050565b600061028082840312156148ba578081fd5b6148c460a0615b1b565b905081356001600160401b03808211156148dd57600080fd5b6148e985838601614738565b835260208401359150808211156148ff57600080fd5b61490b85838601614738565b6020840152604084013591508082111561492457600080fd5b61493085838601614738565b6040840152606084013591508082111561494957600080fd5b5061495684828501614792565b60608301525061496983608084016146c8565b608082015292915050565b600060c08284031215614985578081fd5b60405160c081018181106001600160401b03821117156149a157fe5b6040529050806149b0836149f2565b81526149be60208401614a06565b602082015260408301356040820152606083013560608201526080830135608082015260a083013560a08201525092915050565b803563ffffffff81168114610af757600080fd5b80356001600160401b0381168114610af757600080fd5b600060208284031215614a2e578081fd5b8151611fb281615b87565b60008060008060808587031215614a4e578283fd5b8435614a5981615b87565b93506020850135614a6981615b87565b92506040850135614a7981615b87565b9396929550929360600135925050565b600080600060608486031215614a9d578081fd5b8335614aa881615b87565b92506020840135614ab881615b87565b91506040840135614ac881615baa565b809150509250925092565b60008060408385031215614ae5578182fd5b8235614af081615b87565b91506020830135614b0081615b87565b809150509250929050565b60008060408385031215614b1d578182fd5b8235614b2881615b87565b91506020830135614b0081615b9c565b60008060408385031215614b4a578182fd5b8235614b5581615b87565b91506020830135614b0081615bbf565b60008060408385031215614b77578182fd5b8235614b8281615b87565b915061395f602084016149f2565b60008060208385031215614ba2578182fd5b82356001600160401b03811115614bb7578283fd5b614bc3858286016145be565b90969095509350505050565b60008060408385031215614be1578182fd5b6001600160401b0383351115614bf5578182fd5b8235830184601f820112614c07578283fd5b614c146146268235615b3e565b81358152602080820191908301855b8435811015614d18578135850160e0818b03601f19011215614c43578788fd5b6040518060408201106001600160401b0360408301111715614c6157fe5b60408101604052614c758b60208401614974565b81526001600160401b0360e08301351115614c8e578889fd5b60e0820135820191508a603f830112614ca5578889fd5b614cb56146266020840135615b3e565b6020838101358252810190604084018b5b6020860135811015614cf757614ce28f60408435890101614844565b84526020938401939190910190600101614cc6565b50506020838101919091529187525094850194929092019150600101614c23565b505080945050505061395f602084016147fa565b600080600060408486031215614d40578081fd5b83356001600160401b0380821115614d56578283fd5b818601915086601f830112614d69578283fd5b813581811115614d77578384fd5b87602060c083028501011115614d8b578384fd5b60209283019550935050840135614ac881615bbf565b60008060408385031215614db3578182fd5b82356001600160401b0380821115614dc9578384fd5b818501915085601f830112614ddc578384fd5b81356020614dec61462683615b3e565b8281528181019085830160c0808602880185018c1015614e0a57898afd5b8997505b85881015614e3657614e208c83614974565b8452600197909701969284019290810190614e0e565b50909750505086013592505080821115614e4e578283fd5b50614e5b858286016148a8565b9150509250929050565b600060208284031215614e76578081fd5b8151611fb281615b9c565b600060208284031215614e92578081fd5b5035919050565b600060208284031215614eaa578081fd5b5051919050565b60008060208385031215614ec3578182fd5b82356001600160401b03811115614ed8578283fd5b614bc385828601614805565b60008060008060608587031215614ef9578182fd5b84356001600160401b03811115614f0e578283fd5b614f1a87828801614805565b9095509350506020850135614f2e81615bbf565b9150614f3c604086016149f2565b905092959194509250565b60008060008060808587031215614f5c578182fd5b8435614f6781615b87565b93506020850135614f7781615b87565b92506040850135614f8781615baa565b91506060850135614f9781615baa565b939692955090935050565b60008060008060808587031215614fb7578182fd5b8435614fc281615b87565b935060208501356001600160681b0381168114614fdd578283fd5b92506040850135614fed81615b87565b91506060850135614f9781615bbf565b60008060008060008060008060008060006101e08c8e03121561501e578889fd5b6150288d8d614974565b9a5060c08c013561503881615b87565b995061504660e08d016149f2565b98506150556101008d016149f2565b97506101208c013561506681615baa565b96506150756101408d016149f2565b95506101608c013561508681615b87565b94506150956101808d016149f2565b93506101a08c013592506101c08c01356001600160401b038111156150b8578283fd5b6150c48e828f016145be565b915080935050809150509295989b509295989b9093969950565b60008060e083850312156150f0578182fd5b6150fa8484614974565b915060c08301356001600160401b0380821115615115578283fd5b818501915085601f830112615128578283fd5b8135602061513861462683615b3e565b82815281810190858301875b858110156151fb578135880160c0818e03601f1901121561516357898afd5b61516d60c0615b1b565b868201358152604082013589811115615184578b8cfd5b6151928f8983860101614844565b8883015250606082013560408201526080820135898111156151b2578b8cfd5b6151c08f8983860101614606565b6060830152506151d260a083016149f2565b60808201526151e360c083016149f2565b60a08201528552509284019290840190600101615144565b50979a909950975050505050505050565b60006020828403121561521d578081fd5b8151611fb281615baa565b600060208284031215615239578081fd5b8135611fb281615bbf565b600060208284031215615255578081fd5b8151611fb281615bbf565b60008060408385031215615272578182fd5b8235614af081615bbf565b600080600060608486031215615291578081fd5b833561529c81615bbf565b925060208401356152ac81615b87565b91506040840135614ac881615b9c565b6000602082840312156152cd578081fd5b611fb2826149f2565b600080600080608085870312156152eb578182fd5b6152f4856149f2565b9350602085013561530481615b87565b92506040850135614fed81615bbf565b600080600060608486031215615328578081fd5b615331846149f2565b925061533f602085016149f2565b91506040840135614ac881615bbf565b60008060008060608587031215615364578182fd5b61536d85614a06565b9350602085013561537d81615bbf565b925060408501356001600160401b03811115615397578283fd5b6153a3878288016145be565b95989497509550505050565b60601b6001600160601b0319169052565b6000815180845260208085019450808401835b838110156153ef578151875295820195908201906001016153d3565b509495945050505050565b60801b6001600160801b0319169052565b60f01b6001600160f01b0319169052565b60e01b6001600160e01b0319169052565b6001600160f81b031994909416845260609290921b6001600160601b03191660018401526015830152603582015260550190565b6001600160601b031991909116815260140190565b9182526001600160601b031916602082015260340190565b918252602082015260400190565b600082516154ae818460208701615b5b565b9190910192915050565b600083516154ca818460208801615b5b565b8351908301906154de818360208801615b5b565b01949350505050565b7f19457468657265756d205369676e6564204d6573736167653a0a36320000000081526001600160601b031995909516601c86015260e093841b6001600160e01b031990811660308701529290931b909116603484015260f01b6001600160f01b0319166038830152603a820152605a0190565b7f19457468657265756d205369676e6564204d6573736167653a0a36340000000081526001600160601b031995909516601c86015260e093841b6001600160e01b031990811660308701529290931b909116603484015260f01b6001600160f01b0319166038830152603a820152605a0190565b90565b60f89690961b6001600160f81b03191686526001600160e01b0319948516600187015260e09390931b909316600585015260801b6001600160801b031916600984015260609190911b6001600160601b031916601983015260f01b6001600160f01b031916602d820152602f0190565b6001600160f81b031960f88c901b1681526001600160e01b031960e08b811b821660018401526001600160601b031960608c901b16600584015289901b1660198201526001600160f01b031960f088901b16601d82015260006156a8601f8301886153fa565b6156b5602f83018761541c565b6156c260338301866153af565b6156cf604783018561541c565b50604b810191909152606b019998505050505050505050565b6001600160f81b031960f88d901b1681526001600160e01b031960e08c811b821660018401526001600160601b031960608d901b1660058401528a901b166019820152600061573a601d83018a61540b565b615747601f83018961540b565b61575460218301886153fa565b615761603183018761541c565b61576e60358301866153af565b61577b604983018561541c565b50604d810191909152606d019a9950505050505050505050565b6001600160a01b0391909116815260200190565b6001600160a01b0393841681529190921660208201526001600160681b03909116604082015260600190565b6001600160a01b0392909216825261ffff16602082015260400190565b6001600160a01b03871681526001600160401b03861660208201526000600e861061581957fe5b85604083015260c0606083015284518060c084015261583f8160e0850160208901615b5b565b60808301949094525061ffff9190911660a082015260e0601f909201601f19160101949350505050565b6001600160a01b03968716815294909516602085015263ffffffff92831660408501529082166060840152608083015290911660a082015260c00190565b6001600160a01b03939093168352901515602083015261ffff16604082015260600190565b6001600160a01b039290921682526001600160801b0316602082015260400190565b6000610280808352615902818401896153c0565b905060208382038185015261591782896153c0565b84810360408601528751808252828901935090820190845b8181101561594e57845160ff168352938301939183019160010161592f565b5050848103606086015261596281886153c0565b9350506080840191508460005b601081101561598c5781518452928201929082019060010161596f565b505050509695505050505050565b901515815260200190565b90815260200190565b6001600160a01b0394851681529290931660208301526001600160801b039081166040830152909116606082015260800190565b6020808252600190820152604760f81b604082015260600190565b6020808252600190820152601b60fa1b604082015260600190565b6020808252600190820152602760f91b604082015260600190565b6020808252600190820152604f60f81b604082015260600190565b6020808252600190820152602360f91b604082015260600190565b600060c08201905063ffffffff83511682526001600160401b03602084015116602083015260408301516040830152606083015160608301526080830151608083015260a083015160a083015292915050565b6001600160801b0391909116815260200190565b6001600160801b0392909216825261ffff16602082015260400190565b61ffff91909116815260200190565b63ffffffff9290921682526001600160a01b0316602082015260400190565b6040518181016001600160401b0381118282101715615b3657fe5b604052919050565b60006001600160401b03821115615b5157fe5b5060209081020190565b60005b83811015615b76578181015183820152602001615b5e565b838111156110775750506000910152565b6001600160a01b0381168114610dee57600080fd5b8015158114610dee57600080fd5b6001600160801b0381168114610dee57600080fd5b61ffff81168114610dee57600080fdfe8e94fed44239eb2314ab7a406345e6c5a8f0ccedf3b600de3d004e672c33abf4a26469706673582212207e054fe98b0c25400efe7759dc1b0f5c3727f0628873c476660a50f394f59d1164736f6c63430007060033",
  "linkReferences": {},
  "deployedLinkReferences": {}
}